:020000040000fa
:080000000602040000000000ec
:020000040000fa
:04000800c202000030
:020000040000fa
:04000c00c20200002c
:020000040000fa
:04001000c202000028
:020000040000fa
:04001400c202000024
:020000040000fa
:04001800c202000020
:020000040000fa
:04001c00c20200001c
:020000040000fa
:04002000c202000018
:020000040000fa
:04002400c202000014
:020000040000fa
:04002800c202000010
:020000040000fa
:04002c00c20200000c
:020000040000fa
:04003000c202000008
:020000040000fa
:04003400c202000004
:020000040000fa
:04003800c202000000
:020000040000fa
:04003c00c2020000fc
:020000040000fa
:04004000c2020000f8
:020000040000fa
:0400440000d40000e4
:020000040000fa
:040048007ad4000066
:020000040000fa
:04004c00c2020000ec
:020000040000fa
:04005000c2020000e8
:020000040000fa
:04005400c2020000e4
:020000040000fa
:04005800c2020000e0
:020000040000fa
:04005c00c2020000dc
:020000040000fa
:04006000c2020000d8
:020000040000fa
:04006400c2020000d4
:020000040000fa
:04006800c2020000d0
:020000040000fa
:04006c00c2020000cc
:020000040000fa
:04007000c2020000c8
:020000040000fa
:04007400c2020000c4
:020000040000fa
:04007800c2020000c0
:020000040000fa
:04007c00c2020000bc
:020000040000fa
:04008000c2020000b8
:020000040000fa
:04008400c2020000b4
:020000040000fa
:04008800c2020000b0
:020000040000fa
:04008c00c2020000ac
:020000040000fa
:04009000c2020000a8
:020000040000fa
:04009400a4d40000f0
:020000040000fa
:04009800c2020000a0
:020000040000fa
:04009c00c20200009c
:020000040000fa
:0400a000c202000098
:020000040000fa
:0400a400c202000094
:020000040000fa
:0400a800c202000090
:020000040000fa
:0400ac00c20200008c
:020000040000fa
:0400b000c202000088
:020000040000fa
:0400b400c202000084
:020000040000fa
:0400b800c202000080
:020000040000fa
:0400bc00c20200007c
:020000040000fa
:0400c000c202000078
:020000040000fa
:0400c400c202000074
:020000040000fa
:0400c800c202000070
:020000040000fa
:0400cc00c20200006c
:020000040000fa
:0400d000c202000068
:020000040000fa
:0400d400c202000064
:020000040000fa
:0400d800c202000060
:020000040000fa
:0400dc00c20200005c
:020000040000fa
:0400e000c202000058
:020000040000fa
:0400e400dcd4000068
:020000040000fa
:0400e800c202000050
:020000040000fa
:0400ec00c20200004c
:020000040000fa
:0400f000c202000048
:020000040000fa
:0400f400c202000044
:020000040000fa
:0400f800c202000040
:020000040000fa
:0400fc00c20200003c
:020000040000fa
:04010000c202000037
:020000040000fa
:04010400c202000033
:020000040000fa
:04010800c20200002f
:020000040000fa
:04010c00c20200002b
:020000040000fa
:04011000c202000027
:020000040000fa
:04011400c202000023
:020000040000fa
:04011800c20200001f
:020000040000fa
:04011c00c20200001b
:020000040000fa
:04012000c202000017
:020000040000fa
:04012400c202000013
:020000040000fa
:04012800c20200000f
:020000040000fa
:04012c00c20200000b
:020000040000fa
:04013000c202000007
:020000040000fa
:04013400c202000003
:020000040000fa
:04013800c2020000ff
:020000040000fa
:04013c00c2020000fb
:020000040000fa
:04014000c2020000f7
:020000040000fa
:04014400c2020000f3
:020000040000fa
:04020800c20200002e
:020000040000fa
:04020c00c20200002a
:020000040000fa
:04021000c202000026
:020000040000fa
:04021400c202000022
:020000040000fa
:04021800c20200001e
:020000040000fa
:04021c00c20200001a
:020000040000fa
:04022000c202000016
:020000040000fa
:04022400c202000012
:020000040000fa
:04022800c20200000e
:020000040000fa
:04022c00c20200000a
:020000040000fa
:04023000c202000006
:020000040000fa
:04023400c202000002
:020000040000fa
:04023800c2020000fe
:020000040000fa
:04023c00c2020000fa
:020000040000fa
:04024000c2020000f6
:020000040000fa
:04024400c2020000f2
:020000040000fa
:04024800c2020000ee
:020000040000fa
:04024c00c2020000ea
:020000040000fa
:04025000c2020000e6
:020000040000fa
:04025400c2020000e2
:020000040000fa
:04025800c2020000de
:020000040000fa
:04025c00c2020000da
:020000040000fa
:04026000c2020000d6
:020000040000fa
:04026400c2020000d2
:020000040000fa
:04026800c2020000ce
:020000040000fa
:04026c00c2020000ca
:020000040000fa
:04027000c2020000c6
:020000040000fa
:04027400c2020000c2
:020000040000fa
:04027800c2020000be
:020000040000fa
:04027c00c2020000ba
:020000040000fa
:04028000c2020000b6
:020000040000fa
:04028400c2020000b2
:020000040000fa
:04028800c2020000ae
:020000040000fa
:04028c00c2020000aa
:020000040000fa
:04029000c2020000a6
:020000040000fa
:04029400c2020000a2
:020000040000fa
:04029800c20200009e
:020000040000fa
:04029c00c20200009a
:020000040000fa
:0402a000c202000096
:020000040000fa
:0402a400c202000092
:020000040000fa
:0402a800c20200008e
:020000040000fa
:0402ac00c20200008a
:020000040000fa
:0402b000c202000086
:020000040000fa
:0402b400c202000082
:020000040000fa
:0402b800c20200007e
:020000040000fa
:0402bc00c20200007a
:020000040000fa
:0402c000c202000076
:020000040000fa
:0402c400c202000072
:020000040000fa
:0402c800c20200006e
:020000040000fa
:0402cc00c20200006a
:020000040000fa
:0402d000c202000066
:020000040000fa
:0402d400c202000062
:020000040000fa
:0402d800c20200005e
:020000040000fa
:0402dc00c20200005a
:020000040000fa
:0402e000c202000056
:020000040000fa
:0402e400c202000052
:020000040000fa
:0402e800c20200004e
:020000040000fa
:0402ec00c20200004a
:020000040000fa
:0402f000c202000046
:020000040000fa
:0402f400c202000042
:020000040000fa
:0402f800c20200003e
:020000040000fa
:0402fc00c20200003a
:020000040000fa
:04030000c202000035
:020000040000fa
:04030400c202000031
:020000040000fa
:04030800c20200002d
:020000040000fa
:04030c00c202000029
:020000040000fa
:04031000c202000025
:020000040000fa
:04031400c202000021
:020000040000fa
:04031800c20200001d
:020000040000fa
:04031c00c202000019
:020000040000fa
:04032000c202000015
:020000040000fa
:04032400c202000011
:020000040000fa
:04032800c20200000d
:020000040000fa
:04032c00c202000009
:020000040000fa
:04033000c202000005
:020000040000fa
:04033400c202000001
:020000040000fa
:04033800c2020000fd
:020000040000fa
:04033c00c2020000f9
:020000040000fa
:04034000c2020000f5
:020000040000fa
:04034400c2020000f1
:020000040000fa
:0404000038000000c0
:020000040000fa
:08040400563400001200000054
:020000040000fa
:10040c00ef9223000e7f24000e01880000000000f4
:10041c00000020000000e00002003200000120007b
:10042c00200288000e00070040dd2800010020009b
:10043c00810f700001003200140007000000200042
:10044c000000e0000200320000000200000000008a
:10045c00d8670200000000000040da000000fe0037
:10046c004440a900c05722000000e0000300320005
:10047c0000002000a00188004440a80000000600f5
:10048c008a1f78008b1f78000000060091018800fd
:10049c00800478000000eb001a003700e28444006e
:1004ac0032a0b4009905ba00e284440032a0b40032
:1004bc009906ba00e284440032a0b4000006eb00b6
:1004cc00476fde00fd07b200636ce10003003a00e9
:1004dc00ebff07000000eb000a003700606ce10046
:1004ec0004003a00005deb008b05e900fdff3e00c7
:1004fc00040037006168e100010032000086eb0067
:10050c000b00070019c7ba001905ba000e04e00069
:10051c0003003a000a00e000e0ff3a000000060089
:10052c00fe07b2009e0188008a047800f5ff3700b0
:10053c00395dba008b05e9000c003200295dba0068
:10054c008b05e900080032000c00e00003003a00c3
:10055c00e284440032a0b400f5ff370019ddba0084
:10056c008b05e900faff3a008904e800e1844400b5
:10057c0032a0b400000006000040da000000fe00cb
:10058c006022b800060220000000d0008180d2005a
:10059c000482d2008582d2000000a0000202520028
:1005ac0083825a00030031000202420083824a0017
:1005bc000000a1000603e900f3ff3a00000006006a
:1005cc00efff07000400be0000000600889fbe007d
:1005dc008a9fbe008c1f78000006eb00e00f5000d5
:1005ec00e08f5800e00f5900e08f590007003d00e4
:1005fc006044b8006055b8000000540081805c0075
:10060c0002015d0083815d001c002000e00f5200a0
:10061c00e08f5a00e00f5b00e08f5b0007003d00ad
:10062c006044b8006055b8000402540085825c0038
:10063c0006035d0087835d000c00a200000107002b
:10064c000c00e000060032006022b8006033b800f5
:10065c000000520081805a0002015b0083815b0024
:10066c004f0678004f05be004f04be000000060088
:10067c00889fbe008a9fbe0030044200b0844a00ae
:10068c0030054b0090854b006000b1000898be000f
:10069c000a90be00c1000700020031006800400053
:1006ac001008e8004f05be004f04be000000060015
:1006bc00889fbe008a9fbe003004be002005be008d
:1006cc000418540005985c0006185d0007985d003e
:1006dc0011002000b1000700010039008000eb0080
:1006ec00108810004f05be004f04be00000006002d
:1006fc001200fa00889fbe008a9fbe008c9fbe002d
:10070c00e0b79f00f1b79f0082bf9f0093bf9f008f
:10071c000605be000404be000000eb00d0b79f002d
:10072c00c0b79f00b0b79f00a0b79f0090b79f00c5
:10073c000006eb005fb19700cfb09700820141003b
:10074c003fb097000200e00004003d009800070055
:10075c007e805700c6ff0700030037009400070097
:10076c007e805700d2ff0700dfb697000d00e00037
:10077c000c0035006fb29700ffb297000fbb9700cb
:10078c009fbb970010002000010020006011b800f2
:10079c000002720081827200020373008383730073
:1007ac00580007000c06e80001042000810f5600d9
:1007bc00e0ff3a000d00e00004003d000802be001e
:1007cc000a03be007e805700a9ff07005fa89700b0
:1007dc000000e00005003a001fb29700afb297008e
:1007ec003fb39700cfb39700460007006fb0970058
:1007fc00ffb097000fb997009fb997004f06be0046
:10080c004f05be004f04be000080fa000000060039
:10081c00881f780018002000881f7800b4ff07009c
:10082c008f87e9004f04780000000600801feb0062
:10083c00afff07008f87e90000000600889fbe000d
:10084c008a9fbe003d00070007003d0040000700e6
:10085c00180020004500070008003d002b00070091
:10086c000004eb00050037000004eb003f0007001c
:10087c0002003d002500070018002000e4ff0700df
:10088c000800e000010032003d0007004f05be00eb
:10089c004f04be0000000600889fbe008a9fbe0069
:1008ac008c1f78002500070008003d002800070079
:1008bc001c0020000820e10009a8e1000ab0e100ba
:1008cc000bb8e10007003d00050037000006eb0007
:1008dc002600070003003d006044b8006055b800d6
:1008ec000c000700d1ff07000c00e00001003200f3
:1008fc00230007004f0678004f05be004f04be00d2
:10090c000000060008000700000006006044b80064
:10091c006055b8000402540085825c0006035d003b
:10092c0087835d0000000600a4b79f00b5b79f0049
:10093c00c6b79f00d7b79f0000000600e00f50001d
:10094c00e08f5800e00f5900e08f590000000600be
:10095c006044b8006055b8000000540081805c0011
:10096c0002015d0083815d0000000600e00f520073
:10097c00e08f5a00e00f5b00e08f5b000000060088
:10098c006022b8006033b8000000520081805a0029
:10099c0002015b0083815b00000006000440e10063
:1009ac0005c8e10006d0e10007d8e1000000060010
:1009bc004f09de0082817100b3b79f004f01de004a
:1009cc008180400082807000a1b79f008fb097009b
:1009dc004f09de00000040000200700090b79f003d
:1009ec007fa897004f01de0081804000828070005c
:1009fc0081b79f000d0007004f3ade000000400059
:100a0c0004007000f0af9f000800070004024200d1
:100a1c0085824a0006034b0087834b00c2ff070008
:100a2c000802be000a03be00000006002fb29700a9
:100a3c00bfb297004fb39700dfb3970000000600da
:100a4c00889fbe008a9fbe008c9fbe000404b80025
:100a5c000506b8008904460060854e000606b800fd
:100a6c000a054600e0854e000706b8008b054600d7
:100a7c00040eb800890446000a854e00e0854d003e
:100a8c00050eb8000a0546008b854e00060eb80010
:100a9c008b0546000416b8000a0546008b854e00ef
:100aac000516b8008b054600041eb8008b054600e1
:100abc000800be000a01be004f06be004f05be0076
:080acc004f04be00000006000b
:020000040000fa
:100ad40056690000737300007a610000003c000056
:100ae4003c420000616300006b0000000100000054
:100af400340000006a850000718500005265000022
:100b04006e640000626500006e000000202000009a
:100b1400204f00004b20000020000000b90000001e
:100b2400340000008085000088850000202000003b
:100b3400536500007475000070000000b9000000e7
:100b4400340000009885000098850000546100007e
:100b540072740000e16c000079200000737a0000d8
:100b6400696e000074000000546100006e6b0000a8
:100b7400206c000065760000656c00000000000039
:100b84000100000001000000a8850000b6850000f7
:100b940056e100006c610000737300007a6f00007e
:100ba4006e2000006b75000074610000740000008a
:100bb40020200000536500006c6500006374000091
:100bc40020500000756d00007000000020560000e9
:100bd4005243000020460000554500004c20000010
:100be40045580000504500005254000053000000d6
:100bf400565200004320000046550000454c0000ba
:100c04004558000050450000525400005320000095
:100c14004c54000044000000202000002077000015
:100c2400777700002e760000726300002e680000c3
:100c340075000000436100006c6c0000203000006f
:100c4400383000003020000046550000454c0000bc
:100c54004d4100004e0000004b6900006b61000034
:100c640070630000736f00006c7600006100000088
:100c74004f750000742000004f66000020530000f0
:100c8400657200007669000063650000004600009c
:100c9400656a000020660000656e000074000000b4
:100ca4004e6f00007a7a00006c650000206f00002f
:100cb4006e000000466500006a20000066650000c2
:100cc4006e7400002d530000756d000031000000ab
:100cd4004e6f00007a7a00006c650000206f0000ff
:100ce4006e2d0000537500006d31000000460000b9
:100cf400656a000020660000656e0000742d000027
:100d0400537500006d320000004e00006f7a000041
:100d14007a6c0000652000006f6e00002d53000007
:100d2400756d000032000000466500006a20000076
:100d34006c6500006e740000004e00006f7a0000c5
:100d44007a6c0000652000006f66000066000000f9
:100d5400546100006e6b00006f6c0000e1730000d2
:100d64002d6b000069000000466900006c6c0000f7
:100d7400696e0000672d00004f4600004600000029
:100d8400546100006e6b00006f6c0000e1730000a2
:100d94002d62000065000000466900006c6c0000d4
:100da400696e0000672d00004f4e000000560000e1
:100db400e9670000653a0000206c0000696d0000de
:100dc40069740000004f000076650000723a00006c
:100dd400204c0000696d000069740000005600009a
:100de400e9670000653a000020660000656a0000bb
:100df400004f000076650000723a0000204e0000ab
:100e04006f7a00007a6c00006500000056e900006b
:100e1400676500003a20000069640000f56800007e
:100e240061740000e1720000004f0000766500006c
:100e3400723a000020540000696d00006520000033
:100e44004c6900006d6900007400000056e9000060
:100e5400676500003a2000004c6f000070e100005c
:100e64007321000021210000004f0000766500007e
:100e7400723a000020540000484500004654000027
:100e84002100000056e90000676500003a200000d8
:100e940046650000737a0000fc6c00007473000067
:100ea400e967000020680000696200006121000019
:100eb400004f000076650000723a000020560000e2
:100ec4006f6c00007461000067650000204500003d
:100ed400727200006f720000210000004d65000076
:100ee4006e740000e97300003a2000006c69000091
:100ef4006d69000074000000536100007665000015
:100f04003a2000004c6900006d6900007400000084
:100f14004d6500006e740000e97300003a20000083
:100f2400666500006a0000005361000076650000f9
:100f34003a2000004e6f00007a7a00006c650000d1
:100f4400004d0000656e000074e90000733a000073
:100f54002069000064f500006861000074e100008d
:100f64007200000053610000766500003a20000022
:100f7400546900006d650000204c0000696d00009c
:100f840069740000004d0000656e000074e9000003
:100f9400733a0000204c00006f700000e173000001
:100fa400212100002100000053610000766500004b
:100fb4003a20000054480000454600005421000037
:100fc400004d0000656e000074e90000733a0000f3
:100fd40020460000657300007afc00006c74000079
:100fe40073e9000067200000686900006261000086
:100ff4002100000053610000766500003a200000e3
:10100400566f00006c7400006167000065200000ea
:1010140045720000726f00007221000000da0000c7
:101024006a7200006120000076e100007200000096
:10103400526500006164000079000000526f0000f6
:10104400737300007a20000073740000e1740000e0
:10105400757300007a210000004900006e630000ef
:101064006f7200007265000063740000207300005a
:1010740074610000747500007321000000540000c6
:10108400616e00006b6f00006ce1000073000000f3
:10109400466900006c6c0000696e00006700000087
:1010a400202000002e4b0000fa74000066f50000ba
:1010b4003a000000202000002e4200006f7700005c
:1010c40073650000723a0000002000002020000038
:1010d400202000002020000020200000202000000c
:1010e400202000002020000020200000002000001c
:1010f40020200000202000002020000020200000ec
:101104002020000020200000004b0000e9720000b5
:10111400656d000020610000206b0000e17200009a
:1011240074790000e17400002020000000500000e9
:1011340072650000736500006e7400002063000097
:101144006172000064200000004b0000e97200009e
:10115400656d000020610000206b0000e17200005a
:1011640074790000e16b000061740000005000001d
:1011740072650000736500006e7400002063000057
:101184006172000064730000004e0000e976000004
:101194003a0000004e6100006d6500003a00000056
:1011a4004ae10000726d0000fb3a000000560000a6
:1011b40065680000696300006c6500003a00000087
:1011c400504900004e2000006bf30000643a000018
:1011d400205f00005f5f00005f200000202000000f
:1011e400200000002020000020500000494e000094
:1011f400203a0000205f00005f5f00005f200000d5
:101204002020000020000000504900004e20000073
:101214006bf30000643a0000202a00005f5f0000c6
:101224005f2000002020000020000000202000009b
:1012340020500000494e0000203a0000202a0000ff
:101244005f5f00005f2000002020000020000000fd
:10125400504900004e2000006bf30000643a000087
:10126400202a00002a5f00005f20000020200000e8
:10127400200000002020000020500000494e000003
:10128400203a0000202a00002a5f00005f200000ae
:101294002020000020000000504900004e200000e3
:1012a4006bf30000643a0000202a00002a2a0000a0
:1012b4005f2000002020000020000000202000000b
:1012c40020500000494e0000203a0000202a00006f
:1012d4002a2a00005f2000002020000020000000d7
:1012e400504900004e2000006bf30000643a0000f7
:1012f400202a00002a2a00002a20000020200000c2
:10130400200000002020000020500000494e000072
:10131400203a0000202a00002a2a00002a20000087
:101324002020000020000000204e0000e97600008c
:101334004bf3000064000000204e0000616d0000cb
:10134400654300006f640000650000004b6d000001
:1013540020f300007261000020e100006c6c0000ca
:10136400e1730000613a0000004500006e74000063
:1013740065720000206f0000646f0000207200009e
:1013840065610000646900006e6700003a000000b7
:10139400417a0000206500006cf500007af5000039
:1013a4006ee900006c2000006e6500006d200000f6
:1013b4006c65000068650000742000006b69000023
:1013c40073650000626200002120000000430000f9
:1013d400616e00006e6f0000742000006265000002
:1013e400206c000065730000732000007468000026
:1013f400616e0000207000007265000076690000d4
:101404006f75000073210000004b0000e9720000ba
:10141400656d0000206d0000e9670000656700004d
:10142400797300007a65000072210000202000001a
:1014340020200000202000002020000020200000a8
:101444002020000020000000506c000065610000b6
:1014540073650000206500006e7400006572000072
:10146400206f00006e650000206d00006f720000a8
:1014740065200000746900006d65000021200000f3
:1014840020000000412000006be9000074200000ef
:10149400e972000074e900006b2000006bfc00009e
:1014a4006cf600006e620000f67a0000696b0000c2
:1014b4002120000020200000202000002020000027
:1014c400005400006865000020740000776f00007d
:1014d400206500006e7400007269000065730000ee
:1014e400206400006f6e0000b4740000206d0000e2
:1014f400617400006368000021200000004d0000ba
:10150400656e0000657400006c65000076e90000fb
:101514006c200000737a0000e16d0000613a000065
:10152400004c00006f670000626f00006f6b0000ea
:10153400202300003a000000204d000061690000f3
:10154400206e0000617000002020000020200000b8
:101554002020000020200000202e000074610000e4
:101564006e6b00006f6c0000e1730000005200001d
:1015740065660000756500006c6c0000696e000013
:101584006720000020200000202000002020000010
:10159400746f000064610000792e000000540000a4
:1015a400616e00006b6f00006c68000061740000e5
:1015b400202000002020000020200000206c0000db
:1015c400697400006572000074000000436100004b
:1015d4006e200000666900006c6c00002020000092
:1015e4002020000020200000202000006c69000062
:1015f40074720000657300000020000020200000c9
:1016040020200000206d0000e96700002020000079
:101614002020000020200000202d0000737a00000c
:10162400657200002e000000616e00006f740000ff
:1016340068650000722000002020000020200000c7
:101644002020000020200000746900006d65000067
:10165400732e000000dc00007a6500006df30000ca
:101664007261000020e100006c6c0000e173000076
:10167400613a0000004500006e670000696e0000da
:1016840065200000686f0000757200007320000080
:101694007265000061640000696e0000673a000032
:1016a400004a0000e17200006dfb0000206b0000a6
:1016b400e172000074790000612000006bf3000007
:1016c400646a0000613a000000560000656800008a
:1016d400696300006c650000206300006172000013
:1016e40064200000636f0000646500003a0000009d
:1016f40056690000737300007a6100002020000026
:1017040020200000202000002020000020200000d5
:101714002020000020200000202000004e65000052
:101724006d2000006b6500006c6c0000003c000044
:101734003c420000616300006b2000002020000098
:101744002020000020200000202000002020000095
:1017540020200000204e00006f740000206e000066
:1017640065650000646500006400000056690000bf
:10177400737300007a610000202000002020000024
:101784002020000020200000202000002020000055
:101794002020000020200000202000002020000045
:1017a4002020000020200000003c00003c420000fb
:1017b400616300006b200000202000002020000056
:1017c4002020000020200000202000002020000015
:1017d4002020000020200000202000002020000005
:1017e400202000002000000054f6000072f60000e3
:1017f4006c20000020200000202000002020000099
:1018040020200000202000002020000020200000d4
:1018140020200000202000002020000020200000c4
:1018240020200000004300006c650000617200008d
:1018340020200000202000002020000020200000a4
:101844002020000020200000202000002020000094
:101854002020000020200000202000002020000084
:101864002000000054f6000072f600006c20000016
:101874002020000020200000202000002020000064
:101884002020000020200000202000002020000054
:1018940020520000656e000064620000656e000066
:1018a400004300006c65000061720000202000000d
:1018b4002020000020200000202000002020000024
:1018c4002020000020200000202000002020000014
:1018d40020200000202000004f4b000020000000ca
:1018e400536f000066f50000722000006bf30000e7
:1018f400646a0000613a0000004f00007065000057
:1019040072610000746f000072200000636f0000b9
:10191400646500003a0000004b6900007665000031
:1019240074740000206d0000656e00006e79000084
:1019340069730000e96700003a000000466900008e
:101944006c6c00006564000020760000616c00008f
:10195400756500003a0000004be10000727400005d
:101964007961000020480000494200004100000065
:1019740043610000726400002045000052520000e0
:101984004f520000004e000061700000692000000a
:101994006d650000676500006e6700006564000007
:1019a400657400007400000044610000696c00006c
:1019b40079200000616c00006c6f00007765000006
:1019c40064000000746100006e6b00006f6c000026
:1019d400e17300006f6b0000207300007ae10000e7
:1019e4006d610000006e0000756d0000626500000e
:1019f400722000006f66000020660000696c000021
:101a04006c73000000200000202000006b690000bf
:101a14006d65000072ed000074760000652e000014
:101a240000200000202000006578000068610000ac
:101a34007573000074650000642e0000004500000a
:101a44007a7a0000656c000020610000206b0000c1
:101a5400e172000074790000e1760000616c00001e
:101a64000020000057690000746800002074000022
:101a74006869000073200000636100007264000064
:101a840000200000206500007a6500006e20000040
:101a9400612000006bfa000074660000f56e00001f
:101aa400007900006f750000206d0000617900006e
:101ab400204e00004f54000020460000494c000016
:101ac4004c000000204e0000454d00002054000052
:101ad400414e00004b4f00004c48000041540000b0
:101ae40020210000002000006f6e00002074000020
:101af4006869000073200000707500006d700000bc
:101b040020210000004b0000e9720000656d000018
:101b140020610000207300007a65000072760000e6
:101b2400697a0000206b0000e17200007479000003
:101b3400e17400003a000000507200006573000078
:101b4400656e00007420000073650000727600006a
:101b54006963000065200000636100007264000096
:101b64003a000000537a00006572000076690000b4
:101b74007a2000006d6500006efc00003a00000051
:101b84004d610000696e0000746500006e61000024
:101b94006e630000652000006d6500006e75000036
:101ba4003a000000312d00004bfa0000746600007a
:101bb400f56b000020200000202000002020000001
:101bc400203200002d4b0000e17200007479000007
:101bd40061200000696e0000662e000000310000e4
:101be4002d500000756d000070730000202000006f
:101bf40020200000203200002d430000617200000c
:101c040064200000696e0000666f0000003300006d
:101c14002d42000065e100006c6c0000ed740000d2
:101c2400e17300006f6b000020200000342d0000e1
:101c340056e100006c7400006f7a0000f36b000042
:101c44002e000000332d0000536500007474000062
:101c5400696e00006773000020200000342d00002e
:101c64005661000072690000616200006c6500004a
:101c740073000000352d0000526500006e64000002
:101c8400737a00006572000020000000352d00000a
:101c94005379000073740000656d0000200000009b
:101ca4004bfa000074660000f56b00003a20000057
:101cb4002020000020200000312d000031350000dc
:101cc400206b000075740000616b0000206200004e
:101cd400652f00006b690000004200006f77000070
:101ce40073650000727300003a2000002020000099
:101cf40020200000312d000031350000207000004c
:101d0400756d000070730000206f00006e2f0000de
:101d14006f660000660000004be100007274000072
:101d240079610000206900006e6600006f72000097
:101d34006de1000063690000f36b00003a000000ed
:101d44004361000072640000206900006e660000b8
:101d54006f3a000000310000202d0000204b0000ed
:101d6400e172000074790000e16b00002073000050
:101d74007ae100006d61000000310000202d0000b8
:101d8400204e0000756d00006265000072200000a6
:101d94006f6600002063000061720000647300003d
:101da40000450000677900006be1000072740000d8
:101db40079e1000073200000726500006e64000089
:101dc400737a00006572000000530000696e000021
:101dd400676c00006520000063610000726400000d
:101de4002073000079730000746500006d2000000a
:101df400004b0000e97400006be100007274000005
:101e040079e1000073200000726500006e64000038
:101e1400737a0000657200000044000075610000e0
:101e24006c200000636100007264000020730000f5
:101e340079730000746500006d200000202000000c
:101e44000042000065e100006c6c0000ed740000cd
:101e5400e17300006f6b00003a000000536500005e
:101e640074740000696e0000677300003a0000009b
:101e7400312d00004b6900006a6500006c7a000097
:101e8400e9730000656b0000202000002032000090
:101e94002d4b00006f6e000074720000617300002f
:101ea4007a740000003100002d44000069730000c2
:101eb400706c0000617900002020000020320000d6
:101ec4002d4300006f6e0000747200006173000007
:101ed40074000000332d000049640000f500000088
:101ee400332d0000546900006d65000000340000cb
:101ef4002d5400006573000074720000652000001a
:101f0400737a000061620000e17300000034000095
:101f14002d43000075730000746f00006d690000ac
:101f24007a650000004b0000696a0000656c0000df
:101f34007ae90000736500006b3a00000044000079
:101f440069730000706c0000617900003a000000c1
:101f5400312000002d2000004c6900007465000051
:101f6400722000006b6900006a6500006c7a000052
:101f7400e97300003a2000004245000000310000ef
:101f8400202d0000204c00006974000072650000e0
:101f94007320000064690000737000006c6100002d
:101fa400793a0000204f00004e000000312000006c
:101fb4002d2000004c6900007465000072200000b0
:101fc4006b6900006a6500006c7a0000e973000028
:101fd4003a2000004b49000000310000202d000091
:101fe400204c00006974000072650000732000003a
:101ff40064690000737000006c610000793a0000ad
:10200400204f000046460000004b00006f6e0000a9
:1020140074720000617300007a7400003a000000da
:10202400436f00006e74000072610000737400005e
:102034003a000000312000002d20000063730000ee
:10204400f66b00006b6500006e7400002020000039
:10205400202000002020000020330000202d00005c
:10206400206e0000f6760000656c00000031000070
:10207400202d0000206400006563000072650000ec
:102084006173000065200000202000002020000073
:10209400332000002d200000696e000063720000f0
:1020a400656100007365000000480000f56d0000e4
:1020b400e972000073e900006b6c000065740000b5
:1020c4003a000000546500006d7000006572000065
:1020d4006174000075720000653a0000003700006a
:1020e400202d0000206b00002063000073f6000028
:1020f4006b6b0000656e000074200000202000005f
:1021040020200000392000002d2000006b2000005a
:102114006ef60000766500006c00000037200000b9
:102124002d2000006b200000646500006372000035
:102134006561000073650000202000002039000064
:10214400202d0000206b0000206900006e63000059
:1021540072650000617300006500000054650000b2
:102164007374000072650000207300007a6100003f
:1021740062e10000733a0000004300007573000040
:10218400746f00006d6900007a6500003a00000079
:10219400312000002d2000004b6d00002062000063
:1021a400656b0000e9720000e97300003a2000004a
:1021b400424500002d6e0000f6760000656b0000bd
:1021c40076f5000000310000202d0000204b0000b7
:1021d4006d730000207000006f6c00006c690000db
:1021e4006e6700003a2000004f4e00002d69000089
:1021f4006e6300007265000061730000696e000088
:1022040067000000312000002d2000004b6d00000d
:1022140020620000656b0000e9720000e9730000b1
:102224003a20000042450000202000002020000049
:10223400202000002020000000310000202d00009c
:10224400204b00006d730000207000006f6c0000d4
:102254006c6900006e6700003a2000004f4e0000d9
:10226400202000002020000020200000202000006a
:102274002020000020000000312000002d2000005c
:102284004b6d000020620000656b0000e9720000e5
:10229400e97300003a2000004b49000020200000b0
:1022a4002020000020200000202000000031000039
:1022b400202d0000204b00006d73000020700000f2
:1022c4006f6c00006c6900006e6700003a2000002b
:1022d4004f4600004620000020200000202000007f
:1022e40020200000202000002000000032200000f8
:1022f4002d2000004d6500006e650000746c000028
:1023040065760000e96c000020620000656b000047
:10231400e9720000e97300003a2000004245000021
:1023240000320000202d0000204c00006f670000e8
:10233400626f00006f6b0000207000006f6c000083
:102344006c6900006e6700003a2000004f4e0000e8
:102354002020000020200000202000002000000099
:10236400322000002d2000004d6500006e65000045
:10237400746c000065760000e96c000020620000c7
:10238400656b0000e9720000e97300003a20000068
:102394004b49000000320000202d0000204c0000ba
:1023a4006f670000626f00006f6b00002070000018
:1023b4006f6c00006c6900006e6700003a2000003a
:1023c4004f4600004620000020200000202000008e
:1023d40020000000332000002d200000dc7a0000e3
:1023e400656d0000f372000061200000626500006a
:1023f4006be9000072e90000733a0000204200001b
:10240400452000002020000000330000202d0000a3
:10241400204500006e670000696e00006520000022
:102424006872000073200000706f00006c6c000084
:10243400696e0000673a0000204f00004e20000043
:102444002020000020000000332000002d20000088
:10245400dc7a0000656d0000f3720000612000006a
:10246400626500006be9000072e90000733a000045
:10247400204b000049200000202000000033000011
:10248400202d0000204500006e670000696e0000ea
:10249400652000006872000073200000706f000067
:1024a4006c6c0000696e0000673a0000204f000069
:1024b40046460000202000002000000056e10000f5
:1024c4006c7400006f7a0000f36b0000206b000056
:1024d400696a0000656c00007ae900007365000019
:1024e4003a00000056610000726900006162000059
:1024f4006c650000732000006469000073700000c4
:102504006c61000079650000643a0000005400002a
:10251400616e00006b6f00006ce10000736f0000df
:102524006b200000737a0000e16d0000613a000046
:10253400004e0000756d000062650000722000000e
:102544006f66000020660000696c00006c69000082
:102554006e670000733a0000004b0000e172000057
:1025640074790000e16b0000207300007ae1000040
:102574006d6100003a0000004e7500006d620000bd
:1025840065720000206f0000662000006361000097
:1025940072640000733a000000430000e967000021
:1025a400656b0000207300007ae100006d6100009b
:1025b4003a0000004e7500006d6200006572000074
:1025c400206f00006620000066690000726d000044
:1025d400733a000000520000656e0000647300004e
:1025e4007a650000723a000000530000797300001d
:1025f400746500006d3a000000460000656a000042
:102604006c650000737a000074e900007320000018
:10261400616c00006174000074000000556e0000dd
:1026240064650000722000004465000076650000c7
:102634006c6f0000706d0000656e00007400000097
:102644001b520000020000000a0a00000a0a0000ef
:102654000a1b00006d0000000a0a00000a0a0000bc
:102664000a0a00000a0000002d2d00002d2d000094
:102674002d2d00002d2d00002d2d00002d2d0000ee
:102684002d2d00002d2d00002d2d00002d2d0000de
:102694002d2d00002d2d00002d2d00002d2d0000ce
:1026a4002d2d00002d2d00002d2d000000450000d3
:1026b4006c61000064f300003a00000056650000fd
:1026c4006e6400006f7200003a000000566500005e
:1026d40076f500003a0000004275000079650000bc
:1026e400723a0000004d0000e9720000e973000036
:1026f400206b0000657a00006465000074650000ca
:102704003a200000323000005f5f00002e5f0000be
:102714005f2e00005f5f0000205f00005f3a000052
:102724005f5f00003a5f00005f0000005374000028
:1027340061720000742000006d6500007465000083
:1027440072200000203a0000205f00005f3a000081
:102754005f5f00003a5f00005f2000005f5f0000e1
:102764002e5f00005f2e0000323000005f5f00002b
:10277400004d0000e9720000e973000020760000bb
:10278400e967000065200000202000003a200000d6
:10279400323000005f5f00002e5f00005f2e0000fb
:1027a4005f5f0000205f00005f3a00005f5f000091
:1027b4003a5f00005f000000456e000064200000e6
:1027c4006d65000074650000722000002020000088
:1027d400203a0000205f00005f3a00005f5f0000c5
:1027e4003a5f00005f2000005f5f00002e5f000082
:1027f4005f2e0000323000005f5f000000530000d5
:102804007a6500006de900006c790000202000006a
:10281400202000003a2000005f5f00005f5f00009e
:102824005f5f00005f5f00005f5f00005f5f0000ac
:102834005f5f00005f5f00005f5f00005f5f00009c
:102844002000000050650000727300006f6e0000ed
:102854002020000020200000203a0000205f00001b
:102864005f5f00005f5f00005f5f00005f5f00006c
:102874005f5f00005f5f00005f5f00005f5f00005c
:102884005f5f00005f20000000520000656e0000e2
:10289400647300007ae100006d2000002020000035
:1028a4003a2000005f5f00005f5f00005f5f000090
:1028b4005f5f00005f5f00005f5f00005f5f00001c
:1028c4005f5f00005f5f00005f5f000020000000aa
:1028d4004c690000636500006e6300006520000021
:1028e4004e6f00002e3a0000205f00005f5f000082
:1028f4005f5f00005f5f00005f5f00005f5f0000dc
:102904005f5f00005f5f00005f5f00005f5f0000cb
:102914005f200000004b0000696c00006f6d000038
:10292400e9740000657200002020000020200000ef
:102934002020000020200000202000003a20000079
:10294400202000005f5f00005f5f00005f5f000009
:102954005f5f0000206b00006d0000004f6400000a
:102964006f6d000065740000657200002020000097
:102974002020000020200000202000002020000053
:10298400203a000020200000205f00005f5f00006c
:102994005f5f00005f5f00005f6b00006d7300000d
:1029a40000dc00007a6500006df300007261000035
:1029b4002020000020200000202000002020000013
:1029c40020200000202000003a20000020200000e9
:1029d4005f5f00005f5f00005f5f00005f5f0000fb
:1029e40020f3000020000000456e0000676900002d
:1029f4006e650000206800006f75000072730000af
:102a0400202000002020000020200000203a0000a8
:102a140020200000205f00005f5f00005f5f000077
:102a24005f5f00005f68000072730000004d0000eb
:102a3400656e0000657400006c65000076e90000b6
:102a44006c20000020200000202000002020000036
:102a5400202000003a200000202000005f5f0000da
:102a64005f5f00005f5f00005f5f000020200000e8
:102a7400200000004c6f0000676200006f6f0000d0
:102a84006b200000232000002020000020200000f4
:102a94002020000020200000203a00002020000018
:102aa400205f00005f5f00005f5f00005f5f000069
:102ab4005f20000020200000004b0000696d000032
:102ac400e9720000e9730000207300006f720000d7
:102ad400737a0000e16d0000612000004e72000076
:102ae4003a20000020200000202000005f5f00004a
:102af4005f5f00005f2f00005f20000020000000e7
:102b0400466900006c6c0000696e000067200000dc
:102b140020200000202000002020000020200000b1
:102b2400204e0000723a0000202000002020000007
:102b3400205f00005f5f00005f5f00002f5f000008
:102b440020200000005300007ae100006d6c0000ba
:102b5400e16c0000f3200000e16c00006ce1000077
:102b64007361000020200000205600003a5f00003e
:102b74005f5f00005f5f00005f5f00005f5f000059
:102b84005f2c00005f5f00006c000000436f0000da
:102b9400756e00007465000072200000726500000c
:102ba40061640000696e00006720000020200000be
:102bb400563a00005f5f00005f5f00005f5f000047
:102bc4005f5f00005f5f00002c5f00005f6c00002f
:102bd40000d60000737300007a650000676500008a
:102be4007a65000074740000206d0000e972000032
:102bf400e9730000566f00003a5f00005f5f000059
:102c04005f5f00005f5f00005f5f00005f2c0000fb
:102c14005f5f00006c000000437500006d750000ec
:102c24006c61000074690000766500002076000085
:102c34006f6c0000756d0000655600006f3a00006f
:102c44005f5f00005f5f00005f5f00005f5f000088
:102c54005f5f00002c5f00005f6c0000004b000011
:102c6400696d0000e9720000742000006d650000c9
:102c74006e6e00007969000073e9000067200000af
:102c840020200000567400003a2000005f5f00001e
:102c94005f5f00005f5f00002c5f00005f200000aa
:102ca4006c0000004469000073700000656e000051
:102cb4007365000064200000766f00006c750000ee
:102cc4006d6500002020000020560000743a0000ca
:102cd400205f00005f5f00005f5f00005f2c00006a
:102ce4005f5f0000206c000000540000657200006b
:102cf4006de900006b680000f56d0000e9720000ea
:102d040073e900006b6c0000657400002020000073
:102d1400207400003a20000020200000205f000002
:102d24005f5f00002c5f000020b000004300000043
:102d3400507200006f64000075630000742000008e
:102d4400746500006d70000065720000617400001d
:102d54002e20000020200000743a000020200000f3
:102d6400202000005f5f00005f2c00005f20000057
:102d7400b043000000540000657200006de90000db
:102d84006b2000006d650000676e00006576000032
:102d9400657a0000e97300003a00000050720000f8
:102da4006f64000075630000742000006e61000011
:102db4006d6500003a000000202000002020000083
:102dc400426500006e7a0000696e0000393500002b
:102dd400206d0000617800002e310000307000008a
:102de400706d0000206b0000e96e0000746100004b
:102df4007274000020200000202000000020000049
:102e04002020000050650000747200006f6c000008
:102e140020390000356f000063740000616e00000b
:102e2400652000006d610000782e00003130000044
:102e3400707000006d200000537500006c7000007d
:102e4400680000002020000020200000554e0000f3
:102e540020310000323000003220000044490000dc
:102e64005a4500004c4f00004c4100004a2c000021
:102e7400203300002c490000494900002c280000a0
:102e8400442f0000492900000020000020200000f9
:102e9400205500004e200000313200003032000086
:102ea4002044000049450000534500004c2c00001c
:102eb40020200000203300002c4900004949000074
:102ec4002c280000442f00004929000020000000a5
:102ed40042e100007a69000073680000f56d0000ab
:102ee400e972000073e900006b6c00006574000077
:102ef40020200000207400006f3a00002020000011
:102f04002020000020310000352c0000302000007b
:102f1400b04300000042000061730000652000001f
:102f2400746500006d70000065720000617400003b
:102f3400757200006520000020200000746f0000fe
:102f44003a2000002020000020200000313500003d
:102f54002c30000020b00000430000004d6500004c
:102f64006e6e00007969000073e9000067200000bc
:102f7400746f00002de100006e200000202000008e
:102f8400205600006f3a0000205f00005f5f0000e1
:102f94005f5f00005f2c00005f5f0000206c00009a
:102fa400005600006f6c0000756d00006520000085
:102fb40061740000207400006f20000020200000d5
:102fc4002020000020200000566f00003a2000005e
:102fd4005f5f00005f5f00005f5f00002c5f000028
:102fe4005f2000006c00000045670000797300005a
:102ff400e9670000e1720000202800006e6500000f
:10300400747400006f2900003a3000003030000072
:103014003030000030300000302c00003030000030
:1030240020460000742f00006c000000556e000064
:10303400697400002070000072690000636500007c
:10304400286e000065740000292000003a3000005a
:10305400303000003030000030300000302c0000f0
:1030640030300000202400002f6c000000c100005c
:1030740072200000286e000065740000746f000068
:10308400292000002020000020200000203a000019
:1030940030300000303000003030000030300000ac
:1030a4002c30000030200000467400000050000066
:1030b4007269000063650000202800006e6500004e
:1030c400742900002020000020200000203a000085
:1030d400303000003030000030300000303000006c
:1030e4002c3000003020000024000000c1720000d9
:1030f400202800006272000075740000746f0000e4
:103104002920000020200000202000003a30000088
:10311400303000003030000030300000302c00002f
:10312400303000002046000074000000507200009f
:10313400696300006520000028670000726f0000ca
:103144007373000029200000202000003a300000a2
:10315400303000003030000030300000302c0000ef
:103164003030000020240000004e0000656d000097
:10317400206d000065670000666500006c65000056
:103184006c3f000020620000697a00006f6e00004e
:10319400796c0000617400002021000000420000ee
:1031a40061640000207600006f7500006368000011
:1031b4006572000020210000004b0000e97200004d
:1031c4006afc00006b2000006a6500006c6500006a
:1031d4007a7a000065200000612000006bfa00008c
:1031e400746b0000657a0000656c00003f6e00009f
:1031f400656b000020210000005000006c6100009d
:103204007365000020630000616c00006c20000006
:1032140074680000652000006f7000006572000093
:10322400617400006f7200002021000000000000a3
:10323400ffff0000ffe70000e7e70000e7e700000a
:10324400e7ff0000ffff0000000000000000000096
:10325400000000000000000000000000000000006a
:1032640018180000181800001818000000000000ca
:103274001818000000000000ffff0000ffe7000036
:10328400e7e70000e7e70000e7ff0000ffff0000ba
:10329400ffff0000ffe70000e7e70000e7e70000aa
:1032a400e7ff0000ffff0000ffff0000ffe7000052
:1032b400e7e70000e7e70000e7ff0000ffff00008a
:1032c400609200009468000010100000264900007d
:1032d4008906000000000000ffff0000ffe7000077
:1032e400e7e70000e7e70000e7ff0000ffff00005a
:1032f400ffff0000ffe70000e7e70000e7e700004a
:10330400e7ff0000ffff00000808000010100000a5
:103314002020000010100000080800000000000039
:103324001010000008080000040400000808000051
:103334001010000000000000000000000018000051
:103344003c7e00007e3c00001800000000000000ed
:10335400000000001010000010fe0000101000001b
:103364001000000000000000ffff0000ffe7000065
:10337400e7e70000e7e70000e7ff0000ffff0000c9
:10338400000000000000000000fe0000000000003b
:103394000000000000000000000000000000000029
:1033a40000000000000000001818000000000000e9
:1033b4000204000004080000101000002040000077
:1033c40040800000000000003844000082820000b9
:1033d4008282000082820000443800000000000065
:1033e40010300000501000001010000010100000f9
:1033f4001038000000000000384400008202000081
:10340400040800001020000040fe0000000000003e
:1034140038440000020400001c0400000282000082
:1034240044380000000000000408000010200000e0
:1034340040880000fe0800000808000000000000aa
:103444007c4000004078000004020000028200007a
:10345400443800000000000038440000828000006e
:10346400b8c400008282000044380000000000005c
:10347400fe020000020400000810000020400000ca
:1034840040400000000000003844000044440000b4
:10349400384400008282000044380000000000002c
:1034a4003844000082820000463a00000282000094
:1034b4004438000000000000000000000018000074
:1034c40018000000001800001800000000000000b0
:1034d40000000000001800001800000000180000a0
:1034e4001830000020000000040800001020000034
:1034f400404000002010000008040000000000000c
:10350400ffff0000ffe70000e7e70000e7e7000037
:10351400e7ff0000ffff0000201000000804000087
:103524000202000004080000102000000000000057
:10353400ffff0000ffe70000e7e70000e7e7000007
:10354400e7ff0000ffff0000ffff0000ffe70000af
:10355400e7e70000e7e70000e7ff0000ffff0000e7
:10356400384400008282000082fe00008282000053
:103574008282000000000000f884000084840000bf
:10358400f88400008282000084f80000000000003b
:103594003c420000808000008080000080800000a9
:1035a400423c000000000000f88400008282000019
:1035b400828200008282000084f800000000000083
:1035c400fe80000080800000f88000008080000001
:1035d40080fe000000000000fe80000080800000eb
:1035e400f88000008080000080800000000000005f
:1035f4003844000082800000808e00008282000037
:103604004438000000000000828200008282000032
:1036140082fe00008282000082820000000000001e
:103624001010000010100000101000001010000016
:10363400101000000000000002020000020200005e
:103644000202000002020000847800000000000072
:103654008488000090a00000c0a0000090880000b2
:103664008482000000000000808000008080000050
:10367400808000008080000080fc000000000000ca
:1036840082c60000aa9200008282000082820000aa
:10369400828200000000000082820000c2a20000ba
:1036a400928a0000868200008282000000000000ee
:1036b400384400008282000082820000828200007e
:1036c4004438000000000000fc82000082820000f8
:1036d40082fc000080800000808000000000000068
:1036e400384400008282000082820000828a000046
:1036f400443a000000000000fc82000082820000c6
:1037040082fc000090880000848200000000000019
:103714007e800000808000007c0200000202000025
:1037240002fc000000000000fe1000001010000069
:103734001010000010100000101000000000000025
:103744008282000082820000828200008282000065
:10375400443800000000000082820000824400001f
:10376400444400002828000010100000000000005d
:1037740082820000829200009292000092920000e5
:10378400926c000000000000824400004428000005
:1037940010100000284400004482000000000000d3
:1037a40082440000281000001010000010100000d7
:1037b4001010000000000000fe02000004080000d9
:1037c400102000004080000080fe00000000000087
:1037d4001c10000010100000101000001010000059
:1037e400101c000000000000ffff0000ffe70000c5
:1037f400e7e70000e7e70000e7ff0000ffff000045
:103804003808000008080000080800000808000044
:103814000838000000000000ffff0000ffe7000080
:10382400e7e70000e7e70000e7ff0000ffff000014
:103834000000000000000000000000000000000084
:1038440000000000ffff0000ffff0000ffe7000092
:10385400e7e70000e7e70000e7ff0000ffff0000e4
:1038640000000000003a000046820000828200004e
:10387400463a0000000000008080000080b800008c
:10388400c482000082820000c4b80000000000006e
:103894000000000000380000448000008080000028
:1038a4004438000000000000000000000038000060
:1038b40044800000808000004438000000000000c4
:1038c40002020000023a00004682000082820000e8
:1038d400463a00000000000000000000003800002c
:1038e40044fe000080820000443800000000000014
:1038f4001c100000107c00001010000010100000cc
:10390400101000000000000000000000003800005b
:103914004482000082820000463a0000827c00005b
:103924008080000080b80000c48200008282000011
:10393400828200000000000000100000001000005f
:103944001010000010100000101000000000000013
:103954000010000000100000101000001010000003
:1039640010100000102000008080000080860000fd
:1039740098a00000c0a0000098860000000000008d
:1039840010100000101000001010000010100000b3
:1039940010100000000000000000000000ec000017
:1039a40092920000929200009292000000000000a7
:1039b4000000000000b80000c48200008282000001
:1039c40082820000000000000000000000380000b7
:1039d400448200008282000044380000000000009d
:1039e4000000000000b80000c482000082820000d1
:1039f400c4b800008080000000000000003a00000d
:103a04004682000082820000463a00000202000062
:103a14000000000000bc0000c280000080800000a4
:103a2400808000000000000028100000007e0000dc
:103a3400808000007c02000002fc00000000000006
:103a440000000000007e0000808000007c02000076
:103a540002fc00000000000010100000107c0000b8
:103a640010100000101000001010000000000000f2
:103a740012120000107c0000101000001010000052
:103a84001010000000000000000000000082000090
:103a9400828200008282000044380000000000009e
:103aa400000000000082000082440000442800005e
:103ab4002810000000000000000000000092000038
:103ac4009292000092920000926c000000000000ac
:103ad40000000000008200004428000010280000bc
:103ae400448200000000000000000000008200008a
:103af4008282000082820000463a0000827c00003c
:103b04000000000000fe0000040800001020000077
:103b140040fe0000000000002810000000fe00002d
:103b2400040800001020000040fe00000000000017
:103b3400ffff0000ffe70000e7e70000e7e7000001
:103b4400e7ff0000ffff0000ffff0000ffe70000a9
:103b5400e7e70000e7e70000e7ff0000ffff0000e1
:103b6400ffff0000ffe70000e7e70000e7e70000d1
:103b7400e7ff0000ffff0000ffff0000ffe7000079
:103b8400e7e70000e7e70000e7ff0000ffff0000b1
:103b940018240000241800000000000000000000a9
:103ba400000000000000000008100000003a0000bf
:103bb4004682000082820000463a000000000000b5
:103bc40000280000003a00004682000082820000c3
:103bd400463a000000000000081000000038000011
:103be40044fe000080820000443800000000000011
:103bf4000810000000100000101000001010000059
:103c04001010000000000000081000000038000040
:103c1400448200008282000044380000000000005a
:103c24001028000000380000448200008282000056
:103c340044380000000000000028000000380000a4
:103c4400448200008282000044380000000000002a
:103c54001428000000380000448200008282000022
:103c6400443800000000000008100000008200003a
:103c740082820000828200004438000000000000bc
:103c8400002800000082000082820000828200007e
:103c940044380000000000001428000000820000e6
:103ca400828200008282000044380000000000008c
:103cb400142800005482000082fe0000828200006a
:103cc400828200000000000010fe000090800000ce
:103cd40080f800008080000080fe000000000000ea
:103ce4001414000014100000101000001010000044
:103cf4001010000000000000103800005482000082
:103d0400828200008282000044380000000000002b
:103d14004438000044820000828200008282000055
:103d24004438000000000000143800006c820000d9
:103d340082820000828200004438000000000000fb
:103d440008920000828200008282000082820000c9
:103d54004438000000000000aa82000082820000b3
:103d640082820000828200004438000000000000cb
:103d740014aa000082820000828200008282000075
:103d84004438000000000000ffff0000ffff0000b7
:103d9400ffff000007e0000007e0000007e000006c
:103da40007e0000007e0000007e0000007e0000073
:103db40007e0000007e0000007e0000007e0000063
:103dc40007e0000007e0000007e0000007e0000053
:103dd40007e0000007e0000007e00000ffff00002c
:103de400ffff0000ffff00000000000000000000d3
:103df40000000000000000000000000000000000bf
:103e040000000000000000000000000000000000ae
:103e1400000000000000000000000000000000009e
:103e2400000000000000000000000000000000008e
:103e3400000000000000000000000000000000007e
:103e44000000000000000000c0030000700e00002d
:103e5400381c00001c3800001c3800000e700000e4
:103e64000e7000000e7000000ff000000ff0000054
:103e74000ff000000ff000000ff000000ff0000042
:103e84000ff000000ff000000e7000000e70000034
:103e94000e7000001c3800001c380000381c0000a4
:103ea400700e0000c0030000e0010000e003000009
:103eb400e0070000e01f0000e07b0000e06300007a
:103ec400e0030000e0030000e0030000e003000062
:103ed400e0030000e0030000e0030000e003000052
:103ee400e0030000e0030000e0030000e003000042
:103ef400e0030000e0030000e0030000e003000032
:103f0400f80f0000fe3f0000f0070000f80f00006b
:103f14007c1800003e3000001f6000001f6000009d
:103f24001f6000001f0000001f0000001e000000b2
:103f34003c00000038000000780000007000000021
:103f4400e0000000c0010000800300000007000042
:103f5400010c000003180000ff3f0000ff7f000079
:103f6400ffff0000ffff0000e0030000f80f000067
:103f7400fc1f00007c3000003c3000003c000000ce
:103f84003c0000003800000030000000e0000000a9
:103f9400f8030000fc0300003e0000001f000000c6
:103fa4001f0000001f0000001f0000001f00000091
:103fb4001e0000001e6000001cf0000038f8000025
:103fc400707e0000e01f0000380000007800000050
:103fd40078000000f8000000f801000078010000fb
:103fe4007803000078060000780c000078080000d0
:103ff4007818000078300000782000007860000015
:1040040078c00000ffff0000ffff0000ffff00007a
:1040140078000000780000007800000078000000bc
:104024007800000078000000fe1f0000fe1f000062
:10403400fe1f0000fc1f0000001800000018000014
:10404400001800000018000000180000f01f000015
:10405400f81f0000fc1f0000fe1f00001f180000d6
:104064000f0000000f000000070000000700000020
:10407400070000000f6000000ef000001cf80000b4
:10408400387e0000e03f00000e0000007c000000cd
:10409400f0010000c0030000000f0000001e00003b
:1040a400003e0000003c0000007c0000007c00009a
:1040b40000f80000fcf900001ef800000ff80000f2
:1040c4000ff800000ff800000ff800000ff80000d0
:1040d4000f7800000f7800000e3800001c3c000030
:1040e400381e0000e00f0000ff7f0000ffff00000b
:1040f400ffff0000feff00000ec000000cc0000027
:104104000c0000001c000000180000003800000033
:104114003800000070000000700000006000000023
:10412400e0000000e0000000c0000000c00100004a
:10413400c0010000800300008003000000030000b1
:1041440000070000800f0000f0070000381e000088
:104154000c3800000e7000000e7000000e7000009d
:104164000e7000000c7800001c7c0000383e00003b
:10417400e03f0000f81f0000fc0f0000fe190000e3
:104184007e3000003f7000001ff000001ff00000b0
:104194001ff000001ff000001e7000001c780000db
:1041a400383e0000f01f0000e00f0000701e000009
:1041b4003c3800003e7800003ef000003ff0000074
:1041c4001ff000001ff000001ff000001ff80000a7
:1041d4001f7800001f7800009f3f00009f1f000011
:1041e4001e0000003e0000003c0000003c000000f7
:1041f40078000000f0000000e0010000c0030000af
:10420400001f0000003c000000000000000000004f
:10421400000000000000000080010000c003000056
:10422400c0030000c0030000c0030000c00300007e
:10423400fe7f0000ffff0000ffff0000fe7f000084
:10424400c0030000c0030000c0030000c00300005e
:10425400c003000080010000000000000000000016
:10426400000000000000000000000000000000004a
:10427400000000000000000000000000000000003a
:10428400000000000000000000000000000000002a
:10429400fe7f0000ffff0000ffff0000fe7f000024
:1042a400000000000000000000000000000000000a
:1042b40000000000000000000000000000000000fa
:1042c40000000000000000000000000000000000ea
:1042d40000000000000000000000000000000000da
:1042e40000000000000000000000000000000000ca
:1042f40000000000000000000000000000000000ba
:1043040000000000000000000000000000000000a9
:10431400000000000000000000180000003c000045
:10432400003c000000180000000000000000000035
:104334000000000000000000000000000000000079
:104344000000000000180000003c0000003c0000d9
:104354000018000000000000000000000000000041
:104364000000000000000000000000000000000049
:1043740000180000003c0000003c00000018000091
:104384000000000000000000000800000018000009
:1043940000080000000800000008000000080000f9
:1043a40000080000031c00000c00000030000000a6
:1043b400c000000000030000000c000000300000fa
:1043c400bcc00000c20000008100000081000000a9
:1043d40081000000c2000000bc000000800000005a
:1043e40080000000800000000060000000900000d9
:1043f40000900000786000008400000002010000ca
:104404000102000000040000000800000008000091
:104414000008000000080000000800000008000078
:104424000008000000080000000800000008000068
:104434000008000000040000010200000201000066
:104444008400000078000000e0030000f007000092
:10445400f80f00007c1e00003c3e00003c3e0000c3
:104464007c3e00007c3e0000f83e0000f03e000070
:10447400f03f0000e03f0000c03f0000803f00002c
:10448400007f000000fe000000fe0000003e00006f
:10449400003e0000003e00000f1f0000fe0f000061
:1044a400fc070000f8030000e0070000300c0000e7
:1044b400f81f0000300c0000300c0000300c00002d
:1044c400f81f0000300c0000300c0000300c00001d
:1044d400f81f0000300c0000300c0000f00f00004a
:1044e400f81f0000f00f0000f81f0000fc3f000060
:1044f400fe7f0000fe7f0000fe7f0000fc3f000006
:10450400f81f0000e0070000e0070000300c000086
:10451400fbdf000037ec00003efc00003c3c0000e8
:10452400781e0000f00f0000f00f0000781e00005d
:104534003c3c00003ffc000037ec0000f3cf0000df
:10454400f81f0000f00f0000f81f0000fc3f0000ff
:10455400fe7f0000fe7f0000fe7f0000fc3f0000a5
:10456400f81f0000e0070000003f0000000000000a
:10457400c0ff000000000000f0ff00000300000086
:10458400f8ff000007000000fcff00000f0000001f
:10459400fec000001f0000007e8000001f0000001d
:1045a4003f0000003f0000003f0000003f0000000b
:1045b4001f0000003e0000001f0000003e0000003d
:1045c4001f0000003e0000001f0000003e0000002d
:1045d4001f0000003e0000001f0000003e0000001d
:1045e4001f0000003e0000001f0000003e0000000d
:1045f4001f0000003e0000001f0000003e000000fd
:104604001f0000003e0000001f0000003e000000ec
:104614001f0000003e0000001f0000003e000000dc
:104624001f0000003e0000001f0000003e000000cc
:104634001f0000003e0000001f0000003e000000bc
:104644003f0000003f0000003f0000003f0000006a
:104654007e8000001f000000fec000001f0000005c
:10466400fcff00000f000000f8ff0000070000003e
:10467400f0ff000003000000c0ff00000000000085
:10468400003f000000000000c00700000000000020
:10469400c00f000000000000c01f00000000000068
:1046a400c03f000000000000c07f000000000000c8
:1046b400c0ff000000000000c0ff00000100000077
:1046c400c0f7000003000000c0e70000070000007e
:1046d400c0c7000003000000c00700000000000085
:1046e400c007000000000000c00700000000000038
:1046f400c007000000000000c00700000000000028
:10470400c007000000000000c00700000000000017
:10471400c007000000000000c00700000000000007
:10472400c007000000000000c007000000000000f7
:10473400c007000000000000c007000000000000e7
:10474400c007000000000000c007000000000000d7
:10475400c007000000000000c007000000000000c7
:10476400c007000000000000c007000000000000b7
:10477400c007000000000000c007000000000000a7
:10478400c007000000000000c00700000000000097
:10479400e00f000000000000f01f00000000000017
:1047a400f83f000000000000003f0000000000008f
:1047b400c0ff000000000000f0ff00000300000044
:1047c400f8ff000007000000fcff00000f000000dd
:1047d400fec000001f0000007e8000001f000000db
:1047e4003f0000003f0000003f0000003f000000c9
:1047f4001f0000003e0000001f0000000000000039
:104804001f000000000000001f0000000000000066
:104814003f000000000000007e00000000000000d7
:10482400fc00000000000000f8010000000000008f
:10483400f003000000000000e0070000000000009a
:10484400c00f000000000000801f000000000000f6
:10485400003f000000000000007e00000000000097
:1048640000fc00000000000000f80000010000004f
:1048740000f000000300000000e00000070000005a
:1048840000c000000f000000008000001f000000b6
:10489400000000003f0000001f0000003e00000078
:1048a400ffff00003f000000ffff00003f0000008a
:1048b400ffff00003f000000ffff00003f0000007a
:1048c400feff00001f000000003f00000000000089
:1048d400c0ff000000000000f0ff00000300000023
:1048e400f8ff000007000000fcff00000f000000bc
:1048f400fec000001f0000007e8000001f000000ba
:104904003f0000003f0000003f0000003f000000a7
:104914001f0000003e0000001f0000000000000017
:104924001f000000000000001f0000000000000045
:104934003e000000000000007e00000000000000b7
:10494400fc00000000000000fc0f0000000000005c
:10495400f80f000000000000f80f00000000000045
:10496400fc0f000000000000fc000000000000003c
:104974007e000000000000003e0000000000000077
:104984001f000000000000001f00000000000000e5
:104994001f000000000000001f0000003e00000097
:1049a4003f0000003f0000003f0000003f00000007
:1049b4007e8000001f000000fec000001f000000f9
:1049c400fcff00000f000000f8ff000007000000db
:1049d400f0ff000003000000c0ff00000000000022
:1049e400003f000000000000f8010000000000008b
:1049f400f801000000000000f003000000000000c7
:104a0400f003000000000000e007000000000000c8
:104a1400c00f000000000000c00f000000000000f4
:104a2400801f000000000000003f000000000000a4
:104a3400003f000000000000007e000000000000b5
:104a440000fc00000000000000fc0000000000006a
:104a540000f800000100000000f000000300000066
:104a640000f000000300000000e000000700000068
:104a740000c000000f00000000c000000f00000094
:104a8400008000001f000000e00300003f00000061
:104a9400e00300003f000000ffff00003f000000b3
:104aa400ffff00003f000000ffff00003f00000088
:104ab400ffff00003f000000ffff00003f00000078
:104ac400e003000000000000e0030000000000001c
:104ad400e003000000000000e0030000000000000c
:104ae400e003000000000000e003000000000000fc
:104af400e003000000000000e003000000000000ec
:104b0400e003000000000000f8ff00001f000000a8
:104b1400fcff00003f000000fcff00003f0000001d
:104b2400fcff00003f000000fcff00003f0000000d
:104b3400000000003e000000000000003e000000f5
:104b4400000000003e000000000000003e000000e5
:104b5400000000003e000000000000003e000000d5
:104b6400000000003e000000003f00003e00000086
:104b7400c0ff00003e000000f0ff00003f00000006
:104b8400f8ff00003f000000fcff00003f000000b1
:104b9400fec000003f0000007e8000003f000000d7
:104ba4003f0000003f0000003f0000003f00000005
:104bb4001f0000003e0000001f0000000000000075
:104bc4001f000000000000001f00000000000000a3
:104bd4001f000000000000001f0000003e00000055
:104be4003f0000003f0000003f0000003f000000c5
:104bf4007e8000001f000000fec000001f000000b7
:104c0400fcff00000f000000f8ff00000700000098
:104c1400f0ff000003000000c0ff000000000000df
:104c2400003f000000000000003f00000000000002
:104c3400c0ff000000000000f0ff000003000000bf
:104c4400f8ff000007000000fcff00000f00000058
:104c5400fec000001f0000007e8000001f00000056
:104c64003f0000003f0000003f0000003f00000044
:104c74001f0000003e000000000000003e00000095
:104c8400000000003e000000003f00003e00000065
:104c9400c0ff00003e000000f0ff00003f000000e5
:104ca400f8ff00003f000000fcff00003f00000090
:104cb400fec000003f0000007e8000003f000000b6
:104cc4003f0000003f0000003f0000003f000000e4
:104cd4001f0000003e0000001f0000003e00000016
:104ce4001f0000003e0000001f0000003e00000006
:104cf4001f0000003e0000001f0000003e000000f6
:104d04003f0000003f0000003f0000003f000000a3
:104d14007e8000001f000000fec000001f00000095
:104d2400fcff00000f000000f8ff00000700000077
:104d3400f0ff000003000000c0ff000000000000be
:104d4400003f000000000000feff00001f00000004
:104d5400ffff00003f000000ffff00003f000000d5
:104d6400ffff00003f000000ffff00003f000000c5
:104d74001f0000003e0000001f00000000000000b3
:104d84001f000000000000003f00000000000000c1
:104d94007e00000000000000fc0000000000000095
:104da400f801000000000000f00300000000000013
:104db400e007000000000000c00f00000000000039
:104dc400801f000000000000003f00000000000001
:104dd400003e000000000000c0ff000001000000d1
:104de400c0ff000001000000c0ff0000010000003f
:104df400c0ff000001000000c0ff0000010000002f
:104e0400003e000000000000003e00000000000022
:104e1400003e000000000000003e00000000000012
:104e2400003e000000000000003e00000000000002
:104e3400003e000000000000003e000000000000f2
:104e4400003e000000000000003e000000000000e2
:104e5400003e000000000000003e000000000000d2
:104e6400003e000000000000003f000000000000c1
:104e7400c0ff000000000000f0ff0000030000007d
:104e8400f8ff000007000000fcff00000f00000016
:104e9400fec000001f0000007e8000001f00000014
:104ea4003f0000003f0000003f0000003f00000002
:104eb4001f0000003e0000001f0000003e00000034
:104ec4001f0000003e0000001f0000003e00000024
:104ed4003f0000003f0000007e8000001f00000033
:104ee400fcc000000f000000f8ff000007000000f5
:104ef400f8ff000007000000f8ff000007000000b2
:104f0400f8ff000007000000fcc000000f000000d4
:104f14007e8000001f0000003f0000003f000000f2
:104f24001f0000003e0000001f0000003e000000c3
:104f34001f0000003e0000001f0000003e000000b3
:104f44003f0000003f0000003f0000003f00000061
:104f54007e8000001f000000fec000001f00000053
:104f6400fcff00000f000000f8ff00000700000035
:104f7400f0ff000003000000c0ff0000000000007c
:104f8400003f000000000000003f0000000000009f
:104f9400c0ff000000000000f0ff0000030000005c
:104fa400f8ff000007000000fcff00000f000000f5
:104fb400fec000001f0000007e8000001f000000f3
:104fc4003f0000003f0000003f0000003f000000e1
:104fd4001f0000003e0000001f0000003e00000013
:104fe4003f0000003f0000003f0000003f000000c1
:104ff4007f8000001f000000ffc000001f000000b1
:10500400ffff00000f000000ffff0000070000008a
:10501400ffff000003000000ffff0000000000008d
:105024001f3f0000000000001f00000000000000ff
:105034001f000000000000001f000000000000002e
:105044001f000000000000001f000000000000001e
:105054001f000000000000001f0000003e000000d0
:105064003f0000003f0000003f0000003f00000040
:105074007e8000001f000000fec000001f00000032
:10508400fcff00000f000000f8ff00000700000014
:10509400f0ff000003000000c0ff0000000000005b
:1050a400003f0000000000000000000000000000bd
:1050b40000000000000000000000000000000000ec
:1050c40000000000000000000000000000000000dc
:1050d40000000000000000000000000000000000cc
:1050e40000000000000000000000000000000000bc
:1050f40000000000000000000000000000000000ac
:10510400000000000000000000000000000000009b
:10511400000000000000000000000000000000008b
:10512400000000000000000000000000000000007b
:10513400000000000000000000000000000000006b
:10514400000000000000000000000000000000005b
:10515400000000000000000000000000000000004b
:10516400000000000000000000000000000000003b
:10517400000000000000000000000000000000002b
:10518400000000000000000000000000000000001b
:105194000000000000000000000000001c000000ef
:1051a400000000003e000000000000003e0000007f
:1051b400000000003e000000000000001c00000091
:1051c400000000000000000000c100008140000059
:1051d40001c000008041000001c0000080410000c7
:1051e40000c100008140000001c0000080410000b7
:1051f40000c100008140000000c1000081400000a7
:1052040001c000008041000001c000008041000096
:1052140000c100008140000000c100008140000086
:1052240001c000008041000000c100008140000076
:1052340001c000008041000001c000008041000066
:1052440000c100008140000001c000008041000056
:1052540000c100008140000000c100008140000046
:1052640001c000008041000000c100008140000036
:1052740001c000008041000001c000008041000026
:1052840000c100008140000000c100008140000016
:1052940001c000008041000001c000008041000006
:1052a40000c100008140000001c0000080410000f6
:1052b40000c100008140000000c1000081400000e6
:1052c40001c000008041000001c0000080410000d6
:1052d40000c100008140000000c1000081400000c6
:1052e40001c000008041000000c1000081400000b6
:1052f40001c000008041000001c0000080410000a6
:1053040000c100008140000000c100008140000095
:1053140001c000008041000001c000008041000085
:1053240000c100008140000001c000008041000075
:1053340000c100008140000000c100008140000065
:1053440001c000008041000000c100008140000055
:1053540001c000008041000001c000008041000045
:1053640000c100008140000001c000008041000035
:1053740000c100008140000000c100008140000025
:1053840001c000008041000001c000008041000015
:1053940000c100008140000000c100008140000005
:1053a40001c000008041000000c1000081400000f5
:1053b40001c000008041000001c0000080410000e5
:1053c40000c100008140000000c00000c1010000d5
:1053d400c303000002c20000c606000007c70000a5
:1053e40005c50000c4040000cc0c00000dcd000075
:1053f4000fcf0000ce0e00000aca0000cb0b000045
:10540400c909000008c80000d818000019d9000014
:105414001bdb0000da1a00001ede0000df1f0000a4
:10542400dd1d00001cdc000014d40000d5150000b4
:10543400d717000016d60000d212000013d30000c4
:1054440011d10000d0100000f030000031f1000054
:1054540033f30000f232000036f60000f7370000a4
:10546400f535000034f400003cfc0000fd3d000074
:10547400ff3f00003efe0000fa3a00003bfb000044
:1054840039f90000f838000028e80000e929000094
:10549400eb2b00002aea0000ee2e00002fef0000a4
:1054a4002ded0000ec2c0000e424000025e50000b4
:1054b40027e70000e626000022e20000e3230000c4
:1054c400e121000020e00000a060000061a10000d4
:1054d40063a30000a262000066a60000a7670000a4
:1054e400a565000064a400006cac0000ad6d000074
:1054f400af6f00006eae0000aa6a00006bab000044
:1055040069a90000a868000078b80000b979000013
:10551400bb7b00007aba0000be7e00007fbf0000a3
:105524007dbd0000bc7c0000b474000075b50000b3
:1055340077b70000b676000072b20000b3730000c3
:10554400b171000070b00000509000009151000053
:1055540093530000529200009656000057970000a3
:1055640055950000945400009c5c00005d9d000073
:105574005f9f00009e5e00005a9a00009b5b000043
:105584009959000058980000884800004989000093
:105594004b8b00008a4a00004e8e00008f4f0000a3
:1055a4008d4d00004c8c00004484000085450000b3
:1055b40087470000468600008242000043830000c3
:0855c40041810000804000005d
:020000040000fa
:1055cc000400fa0000942000100078000000e000b5
:1055dc000600320000942000100078008000e900e2
:1055ec00009420000108780035013700b0ea200053
:1055fc00104078000004e000840032000094200089
:10560c002100200001087800009420001000900078
:10561c008000e8000094200011009800a0ea20000f
:10562c00104078000080fb00210a200080804000a0
:10563c00a0e0200000804000104078000080fb00bb
:10564c00000f780000942000100090006101b80059
:10565c000080eb008080eb0002004000838048005b
:10566c009200200003002000820f5000838f58000e
